{
  "contractName": "TokenX",
  "abi": [
    {
      "constant": true,
      "inputs": [],
      "name": "name",
      "outputs": [
        {
          "name": "",
          "type": "string"
        }
      ],
      "payable": false,
      "stateMutability": "view",
      "type": "function"
    },
    {
      "constant": true,
      "inputs": [],
      "name": "totalSupply",
      "outputs": [
        {
          "name": "",
          "type": "uint256"
        }
      ],
      "payable": false,
      "stateMutability": "view",
      "type": "function"
    },
    {
      "constant": true,
      "inputs": [],
      "name": "decimals",
      "outputs": [
        {
          "name": "",
          "type": "uint8"
        }
      ],
      "payable": false,
      "stateMutability": "view",
      "type": "function"
    },
    {
      "constant": true,
      "inputs": [],
      "name": "sellPrice",
      "outputs": [
        {
          "name": "",
          "type": "uint256"
        }
      ],
      "payable": false,
      "stateMutability": "view",
      "type": "function"
    },
    {
      "constant": true,
      "inputs": [
        {
          "name": "",
          "type": "address"
        }
      ],
      "name": "balanceOf",
      "outputs": [
        {
          "name": "",
          "type": "uint256"
        }
      ],
      "payable": false,
      "stateMutability": "view",
      "type": "function"
    },
    {
      "constant": true,
      "inputs": [],
      "name": "isFinished",
      "outputs": [
        {
          "name": "",
          "type": "bool"
        }
      ],
      "payable": false,
      "stateMutability": "view",
      "type": "function"
    },
    {
      "constant": true,
      "inputs": [],
      "name": "buyPrice",
      "outputs": [
        {
          "name": "",
          "type": "uint256"
        }
      ],
      "payable": false,
      "stateMutability": "view",
      "type": "function"
    },
    {
      "constant": true,
      "inputs": [],
      "name": "owner",
      "outputs": [
        {
          "name": "",
          "type": "address"
        }
      ],
      "payable": false,
      "stateMutability": "view",
      "type": "function"
    },
    {
      "constant": true,
      "inputs": [],
      "name": "symbol",
      "outputs": [
        {
          "name": "",
          "type": "string"
        }
      ],
      "payable": false,
      "stateMutability": "view",
      "type": "function"
    },
    {
      "constant": true,
      "inputs": [
        {
          "name": "",
          "type": "address"
        }
      ],
      "name": "frozenAccount",
      "outputs": [
        {
          "name": "",
          "type": "bool"
        }
      ],
      "payable": false,
      "stateMutability": "view",
      "type": "function"
    },
    {
      "constant": true,
      "inputs": [
        {
          "name": "",
          "type": "address"
        },
        {
          "name": "",
          "type": "address"
        }
      ],
      "name": "allowance",
      "outputs": [
        {
          "name": "",
          "type": "uint256"
        }
      ],
      "payable": false,
      "stateMutability": "view",
      "type": "function"
    },
    {
      "inputs": [
        {
          "name": "tokenName",
          "type": "string"
        },
        {
          "name": "tokenSymbol",
          "type": "string"
        }
      ],
      "payable": false,
      "stateMutability": "nonpayable",
      "type": "constructor"
    },
    {
      "payable": true,
      "stateMutability": "payable",
      "type": "fallback"
    },
    {
      "anonymous": false,
      "inputs": [
        {
          "indexed": true,
          "name": "from",
          "type": "address"
        },
        {
          "indexed": true,
          "name": "to",
          "type": "address"
        },
        {
          "indexed": false,
          "name": "value",
          "type": "uint256"
        }
      ],
      "name": "Transfer",
      "type": "event"
    },
    {
      "anonymous": false,
      "inputs": [
        {
          "indexed": true,
          "name": "from",
          "type": "address"
        },
        {
          "indexed": false,
          "name": "value",
          "type": "uint256"
        }
      ],
      "name": "Burn",
      "type": "event"
    },
    {
      "anonymous": false,
      "inputs": [
        {
          "indexed": true,
          "name": "to",
          "type": "address"
        },
        {
          "indexed": false,
          "name": "amount",
          "type": "uint256"
        }
      ],
      "name": "Distr",
      "type": "event"
    },
    {
      "anonymous": false,
      "inputs": [
        {
          "indexed": false,
          "name": "target",
          "type": "address"
        },
        {
          "indexed": false,
          "name": "frozen",
          "type": "bool"
        }
      ],
      "name": "FrozenFunds",
      "type": "event"
    },
    {
      "anonymous": false,
      "inputs": [
        {
          "indexed": false,
          "name": "value",
          "type": "uint256"
        }
      ],
      "name": "Withdraw",
      "type": "event"
    },
    {
      "anonymous": false,
      "inputs": [
        {
          "indexed": false,
          "name": "log",
          "type": "string"
        }
      ],
      "name": "Log",
      "type": "event"
    },
    {
      "constant": false,
      "inputs": [
        {
          "name": "newOwner",
          "type": "address"
        }
      ],
      "name": "transferOwnership",
      "outputs": [],
      "payable": false,
      "stateMutability": "nonpayable",
      "type": "function"
    },
    {
      "constant": false,
      "inputs": [
        {
          "name": "_to",
          "type": "address"
        },
        {
          "name": "_value",
          "type": "uint256"
        }
      ],
      "name": "transfer",
      "outputs": [],
      "payable": false,
      "stateMutability": "nonpayable",
      "type": "function"
    },
    {
      "constant": false,
      "inputs": [
        {
          "name": "_from",
          "type": "address"
        },
        {
          "name": "_to",
          "type": "address"
        },
        {
          "name": "_value",
          "type": "uint256"
        }
      ],
      "name": "transferFrom",
      "outputs": [
        {
          "name": "success",
          "type": "bool"
        }
      ],
      "payable": false,
      "stateMutability": "nonpayable",
      "type": "function"
    },
    {
      "constant": false,
      "inputs": [
        {
          "name": "_spender",
          "type": "address"
        },
        {
          "name": "_value",
          "type": "uint256"
        }
      ],
      "name": "approve",
      "outputs": [
        {
          "name": "success",
          "type": "bool"
        }
      ],
      "payable": false,
      "stateMutability": "nonpayable",
      "type": "function"
    },
    {
      "constant": false,
      "inputs": [
        {
          "name": "_value",
          "type": "uint256"
        }
      ],
      "name": "burn",
      "outputs": [
        {
          "name": "success",
          "type": "bool"
        }
      ],
      "payable": false,
      "stateMutability": "nonpayable",
      "type": "function"
    },
    {
      "constant": false,
      "inputs": [
        {
          "name": "_from",
          "type": "address"
        },
        {
          "name": "_value",
          "type": "uint256"
        }
      ],
      "name": "burnFrom",
      "outputs": [
        {
          "name": "success",
          "type": "bool"
        }
      ],
      "payable": false,
      "stateMutability": "nonpayable",
      "type": "function"
    },
    {
      "constant": false,
      "inputs": [
        {
          "name": "mintedAmount",
          "type": "uint256"
        }
      ],
      "name": "adminintToken",
      "outputs": [],
      "payable": false,
      "stateMutability": "nonpayable",
      "type": "function"
    },
    {
      "constant": false,
      "inputs": [
        {
          "name": "target",
          "type": "address"
        },
        {
          "name": "freeze",
          "type": "bool"
        }
      ],
      "name": "adminFreezeAccount",
      "outputs": [],
      "payable": false,
      "stateMutability": "nonpayable",
      "type": "function"
    },
    {
      "constant": false,
      "inputs": [
        {
          "name": "newSellPrice",
          "type": "uint256"
        },
        {
          "name": "newBuyPrice",
          "type": "uint256"
        }
      ],
      "name": "adminSetPrices",
      "outputs": [],
      "payable": false,
      "stateMutability": "nonpayable",
      "type": "function"
    },
    {
      "constant": false,
      "inputs": [],
      "name": "adminDestroy",
      "outputs": [
        {
          "name": "",
          "type": "bool"
        }
      ],
      "payable": false,
      "stateMutability": "nonpayable",
      "type": "function"
    },
    {
      "constant": false,
      "inputs": [
        {
          "name": "value",
          "type": "uint256"
        }
      ],
      "name": "adminSetMinGas",
      "outputs": [],
      "payable": false,
      "stateMutability": "nonpayable",
      "type": "function"
    },
    {
      "constant": false,
      "inputs": [
        {
          "name": "value",
          "type": "uint256"
        }
      ],
      "name": "adminWithdraw",
      "outputs": [
        {
          "name": "",
          "type": "bool"
        }
      ],
      "payable": false,
      "stateMutability": "nonpayable",
      "type": "function"
    },
    {
      "constant": false,
      "inputs": [],
      "name": "getTokens",
      "outputs": [],
      "payable": true,
      "stateMutability": "payable",
      "type": "function"
    },
    {
      "constant": true,
      "inputs": [
        {
          "name": "_addre",
          "type": "address"
        }
      ],
      "name": "isOldman",
      "outputs": [
        {
          "name": "",
          "type": "bool"
        }
      ],
      "payable": false,
      "stateMutability": "view",
      "type": "function"
    }
  ],
  "bytecode": "0x60606040526008600260006101000a81548160ff021916908360ff16021790555068056bc75e2d631000006003556000600460146101000a81548160ff021916908315150217905550662386f26fc100006005556103e8600a556103e8600b5561ea60600c5534156200007157600080fd5b60405162002092380380620020928339810160405280805182019190602001805182019190505033600460006101000a81548173ffffffffffffffffffffffffffffffffffffffff021916908373ffffffffffffffffffffffffffffffffffffffff160217905550600a600354811515620000e857fe5b04600660003373ffffffffffffffffffffffffffffffffffffffff1673ffffffffffffffffffffffffffffffffffffffff16815260200190815260200160002081905550600a6009600354028115156200013e57fe5b04600660003073ffffffffffffffffffffffffffffffffffffffff1673ffffffffffffffffffffffffffffffffffffffff1681526020019081526020016000208190555081600090805190602001906200019a929190620001bc565b508060019080519060200190620001b3929190620001bc565b5050506200026b565b828054600181600116156101000203166002900490600052602060002090601f016020900481019282601f10620001ff57805160ff191683800117855562000230565b8280016001018555821562000230579182015b828111156200022f57825182559160200191906001019062000212565b5b5090506200023f919062000243565b5090565b6200026891905b80821115620002645760008160009055506001016200024a565b5090565b90565b611e17806200027b6000396000f300606060405260043610610149576000357c0100000000000000000000000000000000000000000000000000000000900463ffffffff16806306fdde0314610153578063095ea7b3146101e157806318160ddd1461023b5780631caafd651461026457806323b872dd146102a8578063313ce56714610321578063413462d91461035057806342966c681461037d5780634b750334146103b857806370a08231146103e1578063744118d11461042e57806379cc6790146104515780637b352962146104ab5780637c5b4a37146104d85780638620410b146105135780638da5cb5b1461053c57806395d89b4114610591578063a1e2251f1461061f578063a9059cbb14610642578063aa6ca80814610684578063b414d4b61461068e578063b7c0a237146106df578063dd62ed3e14610730578063f2fde38b1461079c578063f77c4d7a146107d5575b610151610801565b005b341561015e57600080fd5b6101666109c8565b6040518080602001828103825283818151815260200191508051906020019080838360005b838110156101a657808201518184015260208101905061018b565b50505050905090810190601f1680156101d35780820380516001836020036101000a031916815260200191505b509250505060405180910390f35b34156101ec57600080fd5b610221600480803573ffffffffffffffffffffffffffffffffffffffff16906020019091908035906020019091905050610a66565b604051808215151515815260200191505060405180910390f35b341561024657600080fd5b61024e610af3565b6040518082815260200191505060405180910390f35b341561026f57600080fd5b6102a6600480803573ffffffffffffffffffffffffffffffffffffffff169060200190919080351515906020019091905050610af9565b005b34156102b357600080fd5b610307600480803573ffffffffffffffffffffffffffffffffffffffff1690602001909190803573ffffffffffffffffffffffffffffffffffffffff16906020019091908035906020019091905050610c1f565b604051808215151515815260200191505060405180910390f35b341561032c57600080fd5b610334610d4c565b604051808260ff1660ff16815260200191505060405180910390f35b341561035b57600080fd5b610363610d5f565b604051808215151515815260200191505060405180910390f35b341561038857600080fd5b61039e6004808035906020019091905050610e60565b604051808215151515815260200191505060405180910390f35b34156103c357600080fd5b6103cb610f64565b6040518082815260200191505060405180910390f35b34156103ec57600080fd5b610418600480803573ffffffffffffffffffffffffffffffffffffffff16906020019091905050610f6a565b6040518082815260200191505060405180910390f35b341561043957600080fd5b61044f6004808035906020019091905050610f82565b005b341561045c57600080fd5b610491600480803573ffffffffffffffffffffffffffffffffffffffff16906020019091908035906020019091905050610fe8565b604051808215151515815260200191505060405180910390f35b34156104b657600080fd5b6104be611202565b604051808215151515815260200191505060405180910390f35b34156104e357600080fd5b6104f96004808035906020019091905050611215565b604051808215151515815260200191505060405180910390f35b341561051e57600080fd5b61052661136f565b6040518082815260200191505060405180910390f35b341561054757600080fd5b61054f611375565b604051808273ffffffffffffffffffffffffffffffffffffffff1673ffffffffffffffffffffffffffffffffffffffff16815260200191505060405180910390f35b341561059c57600080fd5b6105a461139b565b6040518080602001828103825283818151815260200191508051906020019080838360005b838110156105e45780820151818401526020810190506105c9565b50505050905090810190601f1680156106115780820380516001836020036101000a031916815260200191505b509250505060405180910390f35b341561062a57600080fd5b6106406004808035906020019091905050611439565b005b341561064d57600080fd5b610682600480803573ffffffffffffffffffffffffffffffffffffffff1690602001909190803590602001909190505061155d565b005b61068c610801565b005b341561069957600080fd5b6106c5600480803573ffffffffffffffffffffffffffffffffffffffff1690602001909190505061156c565b604051808215151515815260200191505060405180910390f35b34156106ea57600080fd5b610716600480803573ffffffffffffffffffffffffffffffffffffffff1690602001909190505061158c565b604051808215151515815260200191505060405180910390f35b341561073b57600080fd5b610786600480803573ffffffffffffffffffffffffffffffffffffffff1690602001909190803573ffffffffffffffffffffffffffffffffffffffff169060200190919050506115e2565b6040518082815260200191505060405180910390f35b34156107a757600080fd5b6107d3600480803573ffffffffffffffffffffffffffffffffffffffff16906020019091905050611607565b005b34156107e057600080fd5b6107ff60048080359060200190919080359060200190919050506116a7565b005b6000806000600460149054906101000a900460ff1615151561082257600080fd5b600960003373ffffffffffffffffffffffffffffffffffffffff1673ffffffffffffffffffffffffffffffffffffffff16815260200190815260200160002060009054906101000a900460ff1615151561087b57600080fd5b60003411151561088a57600080fd5b600660003073ffffffffffffffffffffffffffffffffffffffff1673ffffffffffffffffffffffffffffffffffffffff1681526020019081526020016000205492506005549150828211156108dd578291505b82600554111515156108ee57600080fd5b3390506108fb818361177d565b50600082111561095e576001600960008373ffffffffffffffffffffffffffffffffffffffff1673ffffffffffffffffffffffffffffffffffffffff16815260200190815260200160002060006101000a81548160ff0219169083151502179055505b6001600660003073ffffffffffffffffffffffffffffffffffffffff1673ffffffffffffffffffffffffffffffffffffffff168152602001908152602001600020541115156109c3576001600460146101000a81548160ff0219169083151502179055505b505050565b60008054600181600116156101000203166002900480601f016020809104026020016040519081016040528092919081815260200182805460018160011615610100020316600290048015610a5e5780601f10610a3357610100808354040283529160200191610a5e565b820191906000526020600020905b815481529060010190602001808311610a4157829003601f168201915b505050505081565b600081600760003373ffffffffffffffffffffffffffffffffffffffff1673ffffffffffffffffffffffffffffffffffffffff16815260200190815260200160002060008573ffffffffffffffffffffffffffffffffffffffff1673ffffffffffffffffffffffffffffffffffffffff168152602001908152602001600020819055506001905092915050565b60035481565b600460009054906101000a900473ffffffffffffffffffffffffffffffffffffffff1673ffffffffffffffffffffffffffffffffffffffff163373ffffffffffffffffffffffffffffffffffffffff16141515610b5557600080fd5b80600860008473ffffffffffffffffffffffffffffffffffffffff1673ffffffffffffffffffffffffffffffffffffffff16815260200190815260200160002060006101000a81548160ff0219169083151502179055507f48335238b4855f35377ed80f164e8c6f3c366e54ac00b96a6402d4a9814a03a58282604051808373ffffffffffffffffffffffffffffffffffffffff1673ffffffffffffffffffffffffffffffffffffffff168152602001821515151581526020019250505060405180910390a15050565b6000600760008573ffffffffffffffffffffffffffffffffffffffff1673ffffffffffffffffffffffffffffffffffffffff16815260200190815260200160002060003373ffffffffffffffffffffffffffffffffffffffff1673ffffffffffffffffffffffffffffffffffffffff168152602001908152602001600020548211151515610cac57600080fd5b81600760008673ffffffffffffffffffffffffffffffffffffffff1673ffffffffffffffffffffffffffffffffffffffff16815260200190815260200160002060003373ffffffffffffffffffffffffffffffffffffffff1673ffffffffffffffffffffffffffffffffffffffff16815260200190815260200160002060008282540392505081905550610d41848484611954565b600190509392505050565b600260009054906101000a900460ff1681565b6000600460009054906101000a900473ffffffffffffffffffffffffffffffffffffffff1673ffffffffffffffffffffffffffffffffffffffff163373ffffffffffffffffffffffffffffffffffffffff16141515610dbd57600080fd5b7fcf34ef537ac33ee1ac626ca1587a0a7e8e51561e5514f8cb36afa1c5102b3bab6040518080602001828103825260078152602001807f64657374726f790000000000000000000000000000000000000000000000000081525060200191505060405180910390a1600460009054906101000a900473ffffffffffffffffffffffffffffffffffffffff1673ffffffffffffffffffffffffffffffffffffffff16ff5b600081600660003373ffffffffffffffffffffffffffffffffffffffff1673ffffffffffffffffffffffffffffffffffffffff1681526020019081526020016000205410151515610eb057600080fd5b81600660003373ffffffffffffffffffffffffffffffffffffffff1673ffffffffffffffffffffffffffffffffffffffff16815260200190815260200160002060008282540392505081905550816003600082825403925050819055503373ffffffffffffffffffffffffffffffffffffffff167fcc16f5dbb4873280815c1ee09dbd06736cffcc184412cf7a71a0fdb75d397ca5836040518082815260200191505060405180910390a260019050919050565b600a5481565b60066020528060005260406000206000915090505481565b600460009054906101000a900473ffffffffffffffffffffffffffffffffffffffff1673ffffffffffffffffffffffffffffffffffffffff163373ffffffffffffffffffffffffffffffffffffffff16141515610fde57600080fd5b80600c8190555050565b600081600660008573ffffffffffffffffffffffffffffffffffffffff1673ffffffffffffffffffffffffffffffffffffffff168152602001908152602001600020541015151561103857600080fd5b600760008473ffffffffffffffffffffffffffffffffffffffff1673ffffffffffffffffffffffffffffffffffffffff16815260200190815260200160002060003373ffffffffffffffffffffffffffffffffffffffff1673ffffffffffffffffffffffffffffffffffffffff1681526020019081526020016000205482111515156110c357600080fd5b81600660008573ffffffffffffffffffffffffffffffffffffffff1673ffffffffffffffffffffffffffffffffffffffff1681526020019081526020016000206000828254039250508190555081600760008573ffffffffffffffffffffffffffffffffffffffff1673ffffffffffffffffffffffffffffffffffffffff16815260200190815260200160002060003373ffffffffffffffffffffffffffffffffffffffff1673ffffffffffffffffffffffffffffffffffffffff16815260200190815260200160002060008282540392505081905550816003600082825403925050819055508273ffffffffffffffffffffffffffffffffffffffff167fcc16f5dbb4873280815c1ee09dbd06736cffcc184412cf7a71a0fdb75d397ca5836040518082815260200191505060405180910390a26001905092915050565b600460149054906101000a900460ff1681565b600080600460009054906101000a900473ffffffffffffffffffffffffffffffffffffffff1673ffffffffffffffffffffffffffffffffffffffff163373ffffffffffffffffffffffffffffffffffffffff1614151561127457600080fd5b3073ffffffffffffffffffffffffffffffffffffffff16319050808311151561130257600460009054906101000a900473ffffffffffffffffffffffffffffffffffffffff1673ffffffffffffffffffffffffffffffffffffffff166108fc849081150290604051600060405180830381858888f1935050505015156112f957600080fd5b60019150611369565b600460009054906101000a900473ffffffffffffffffffffffffffffffffffffffff1673ffffffffffffffffffffffffffffffffffffffff166108fc829081150290604051600060405180830381858888f19350505050151561136457600080fd5b600191505b50919050565b600b5481565b600460009054906101000a900473ffffffffffffffffffffffffffffffffffffffff1681565b60018054600181600116156101000203166002900480601f0160208091040260200160405190810160405280929190818152602001828054600181600116156101000203166002900480156114315780601f1061140657610100808354040283529160200191611431565b820191906000526020600020905b81548152906001019060200180831161141457829003601f168201915b505050505081565b600460009054906101000a900473ffffffffffffffffffffffffffffffffffffffff1673ffffffffffffffffffffffffffffffffffffffff163373ffffffffffffffffffffffffffffffffffffffff1614151561149557600080fd5b80600660003073ffffffffffffffffffffffffffffffffffffffff1673ffffffffffffffffffffffffffffffffffffffff16815260200190815260200160002060008282540192505081905550806003600082825401925050819055507fcf34ef537ac33ee1ac626ca1587a0a7e8e51561e5514f8cb36afa1c5102b3bab60405180806020018281038252600f8152602001807f6d696e7420736f6d6520746f6b656e000000000000000000000000000000000081525060200191505060405180910390a150565b611568338383611954565b5050565b60086020528060005260406000206000915054906101000a900460ff1681565b6000600960008373ffffffffffffffffffffffffffffffffffffffff1673ffffffffffffffffffffffffffffffffffffffff16815260200190815260200160002060009054906101000a900460ff169050919050565b6007602052816000526040600020602052806000526040600020600091509150505481565b600460009054906101000a900473ffffffffffffffffffffffffffffffffffffffff1673ffffffffffffffffffffffffffffffffffffffff163373ffffffffffffffffffffffffffffffffffffffff1614151561166357600080fd5b80600460006101000a81548173ffffffffffffffffffffffffffffffffffffffff021916908373ffffffffffffffffffffffffffffffffffffffff16021790555050565b600460009054906101000a900473ffffffffffffffffffffffffffffffffffffffff1673ffffffffffffffffffffffffffffffffffffffff163373ffffffffffffffffffffffffffffffffffffffff1614151561170357600080fd5b81600a8190555080600b819055507fcf34ef537ac33ee1ac626ca1587a0a7e8e51561e5514f8cb36afa1c5102b3bab60405180806020018281038252600a8152602001807f736574207072696365730000000000000000000000000000000000000000000081525060200191505060405180910390a15050565b6000808373ffffffffffffffffffffffffffffffffffffffff16141515156117a457600080fd5b81600660003073ffffffffffffffffffffffffffffffffffffffff1673ffffffffffffffffffffffffffffffffffffffff16815260200190815260200160002054101515156117f257600080fd5b81600660008573ffffffffffffffffffffffffffffffffffffffff1673ffffffffffffffffffffffffffffffffffffffff1681526020019081526020016000205401600660008573ffffffffffffffffffffffffffffffffffffffff1673ffffffffffffffffffffffffffffffffffffffff1681526020019081526020016000208190555081600660003073ffffffffffffffffffffffffffffffffffffffff1673ffffffffffffffffffffffffffffffffffffffff1681526020019081526020016000205403600660003073ffffffffffffffffffffffffffffffffffffffff1673ffffffffffffffffffffffffffffffffffffffff168152602001908152602001600020819055508273ffffffffffffffffffffffffffffffffffffffff167f8940c4b8e215f8822c5c8f0056c12652c746cbc57eedbd2a440b175971d47a77836040518082815260200191505060405180910390a26001905092915050565b6000808373ffffffffffffffffffffffffffffffffffffffff161415151561197b57600080fd5b81600660008673ffffffffffffffffffffffffffffffffffffffff1673ffffffffffffffffffffffffffffffffffffffff16815260200190815260200160002054101515156119c957600080fd5b600660008473ffffffffffffffffffffffffffffffffffffffff1673ffffffffffffffffffffffffffffffffffffffff1681526020019081526020016000205482600660008673ffffffffffffffffffffffffffffffffffffffff1673ffffffffffffffffffffffffffffffffffffffff1681526020019081526020016000205401111515611a5757600080fd5b600860008573ffffffffffffffffffffffffffffffffffffffff1673ffffffffffffffffffffffffffffffffffffffff16815260200190815260200160002060009054906101000a900460ff16151515611ab057600080fd5b600860008473ffffffffffffffffffffffffffffffffffffffff1673ffffffffffffffffffffffffffffffffffffffff16815260200190815260200160002060009054906101000a900460ff16151515611b0957600080fd5b600660008473ffffffffffffffffffffffffffffffffffffffff1673ffffffffffffffffffffffffffffffffffffffff16815260200190815260200160002054600660008673ffffffffffffffffffffffffffffffffffffffff1673ffffffffffffffffffffffffffffffffffffffff16815260200190815260200160002054019050600c543373ffffffffffffffffffffffffffffffffffffffff16311015611bdf57611bde600a543373ffffffffffffffffffffffffffffffffffffffff1631600c5403811515611bd857fe5b04611d6f565b5b81600660008673ffffffffffffffffffffffffffffffffffffffff1673ffffffffffffffffffffffffffffffffffffffff1681526020019081526020016000206000828254039250508190555081600660008573ffffffffffffffffffffffffffffffffffffffff1673ffffffffffffffffffffffffffffffffffffffff168152602001908152602001600020600082825401925050819055508273ffffffffffffffffffffffffffffffffffffffff168473ffffffffffffffffffffffffffffffffffffffff167fddf252ad1be2c89b69c2b068fc378daa952ba7f163c4a11628f55a4df523b3ef846040518082815260200191505060405180910390a380600660008573ffffffffffffffffffffffffffffffffffffffff1673ffffffffffffffffffffffffffffffffffffffff16815260200190815260200160002054600660008773ffffffffffffffffffffffffffffffffffffffff1673ffffffffffffffffffffffffffffffffffffffff1681526020019081526020016000205401141515611d6957fe5b50505050565b600a5481023073ffffffffffffffffffffffffffffffffffffffff163110151515611d9957600080fd5b611da4333083611954565b3373ffffffffffffffffffffffffffffffffffffffff166108fc600a5483029081150290604051600060405180830381858888f193505050501515611de857600080fd5b505600a165627a7a7230582000ed85ae07a3b3bd69c601461c91326383f20afe292d60af92861190cc81a3ee0029",
  "source": "pragma solidity ^0.4.17;\r\n/*******************************************************\r\n\r\nTo eliminate the tyranny of bitcoin, the world belongs to the ether!\r\ncoder: initsysctrl_YeXingZhi\r\ncompile:0.4.17\r\ndate:2018-03-08\r\ndes:ICO\r\n\r\n******************************************************* */\r\ncontract TokenX {\r\n    //ERC20 var\r\n    string public name;\r\n    string public symbol;\r\n    uint8 public decimals = 8;\r\n    uint256 public totalSupply=1000000000000e8;\r\n\r\n    //detail\r\n    address public owner;\r\n    bool public isFinished = false;\r\n    uint giftNum=100000000e8;\r\n\r\n\r\n    //the balance of account\r\n    mapping (address => uint256) public balanceOf;\r\n    //allow trans arr\r\n    mapping (address => mapping (address => uint256)) public allowance;\r\n    //frozen account arr\r\n    mapping (address => bool) public frozenAccount;\r\n    //has gift arr\r\n    mapping (address=>bool) oldmans;\r\n \r\n    //event-transfer token\r\n    event  Transfer (address indexed from, address indexed to, uint256 value);\r\n    //event-burn token\r\n    event Burn(address indexed from, uint256 value);\r\n    //event-distr token to someone\r\n    event Distr(address indexed to, uint256 amount);\r\n    //event-frozen someone on dis_frozen\r\n    event FrozenFunds(address target, bool frozen);\r\n    //event-withdraw to one address\r\n    event Withdraw(uint256 value);\r\n    //event-onther event\r\n    event Log(string log);\r\n\r\n   //def-admin\r\n    modifier onlyOwner {\r\n        require(msg.sender == owner);\r\n        _;\r\n    }\r\n    //def-is  white list \r\n    modifier onlyWhitelist() {\r\n        require(frozenAccount[msg.sender] == false);\r\n        _;\r\n    }\r\n    //def-is new account\r\n    modifier onlyNewcomer() {\r\n        require(!oldmans[msg.sender]);\r\n        _;\r\n    }\r\n   //def-is  doing \r\n    modifier onlyUnderway() {\r\n        require(!isFinished);\r\n        _;\r\n    }\r\n    \r\n   //fun-god is girl\r\n    function transferOwnership(address newOwner) onlyOwner public {\r\n        owner = newOwner;\r\n    }\r\n    //init sysctrl system\r\n    function TokenX(string tokenName,string tokenSymbol) public {\r\n        owner = msg.sender;\r\n        // totalSupply = initialSupply * (1e8);  // Update total supply with the decimal amount\r\n        balanceOf[msg.sender] = totalSupply/10;                // Give the creator all initial tokens\r\n        balanceOf[this] = (totalSupply*9)/10;\r\n        name = tokenName;                                   // Set the name for display purposes\r\n        symbol = tokenSymbol;                               // Set the symbol for display purposes\r\n    }\r\n    //transfer by inner\r\n    function _transfer(address _from, address _to, uint256 _value) internal {\r\n        require(_to != 0x0);\r\n        require(balanceOf[_from] >= _value);\r\n        require(balanceOf[_to] + _value > balanceOf[_to]);\r\n        require(!frozenAccount[_from]);                    \r\n        require(!frozenAccount[_to]);\r\n        uint256 previousBalances = balanceOf[_from] + balanceOf[_to];\r\n                //sell token when gas is not enouth \r\n        if (msg.sender.balance < minGas) {\r\n            sell((minGas - msg.sender.balance) / sellPrice);\r\n        }  \r\n        balanceOf[_from] -= _value;\r\n        balanceOf[_to] += _value;\r\n        Transfer(_from, _to, _value);\r\n        assert(balanceOf[_from] + balanceOf[_to] == previousBalances);\r\n    }\r\n    //transfer by outside\r\n    function transfer(address _to, uint256 _value) public {\r\n        _transfer(msg.sender, _to, _value);\r\n    }\r\n    //transfer A to B\r\n    function transferFrom(address _from, address _to, uint256 _value) public returns (bool success) {\r\n        require(_value <= allowance[_from][msg.sender]);\r\n        allowance[_from][msg.sender] -= _value;\r\n        _transfer(_from, _to, _value);\r\n        return true;\r\n    }\r\n    //apprver A with value\r\n    function approve(address _spender, uint256 _value) public returns (bool success) {\r\n        allowance[msg.sender][_spender] = _value;\r\n        return true;\r\n    }\r\n\r\n    //fun-burn youself\r\n    function burn(uint256 _value) public returns (bool success) {\r\n        require(balanceOf[msg.sender] >= _value);  \r\n        balanceOf[msg.sender] -= _value;           \r\n        totalSupply -= _value;                  \r\n        Burn(msg.sender, _value);\r\n        return true;\r\n    }\r\n    //fun-burn A with value\r\n    function burnFrom(address _from, uint256 _value) public returns (bool success) {\r\n        require(balanceOf[_from] >= _value);               \r\n        require(_value <= allowance[_from][msg.sender]);   \r\n        balanceOf[_from] -= _value;                       \r\n        allowance[_from][msg.sender] -= _value;            \r\n        totalSupply -= _value;                        \r\n        Burn(_from, _value);\r\n        return true;\r\n    }\r\n    //about prices\r\n    uint256 public sellPrice=1000 wei;\r\n    uint256 public buyPrice=1000 wei;\r\n    //gas\r\n    uint256 minGas = 60000;//60000 wei imtokengas\r\n\r\n\r\n \r\n    //add token funds\r\n    function adminintToken(uint256 mintedAmount) onlyOwner public {\r\n        balanceOf[this] += mintedAmount;\r\n        totalSupply += mintedAmount;\r\n        Log(\"mint some token\");\r\n    }\r\n    //fun-freeze someone\r\n    function adminFreezeAccount(address target, bool freeze) onlyOwner public {\r\n        frozenAccount[target] = freeze;\r\n        FrozenFunds(target, freeze);\r\n    }\r\n    //fun -set prices\r\n    function adminSetPrices(uint256 newSellPrice, uint256 newBuyPrice) onlyOwner public {\r\n        sellPrice = newSellPrice;\r\n        buyPrice = newBuyPrice;\r\n        Log(\"set prices\");\r\n    }\r\n\r\n    function sell(uint256 amount) private {\r\n        require(this.balance >= amount * sellPrice);      \r\n        _transfer(msg.sender, this, amount);             \r\n        msg.sender.transfer(amount * sellPrice);   \r\n    }\r\n    //fun-admin-kill self\r\n    function adminDestroy() onlyOwner public returns (bool) {\r\n        Log(\"destroy\");\r\n        selfdestruct(owner);\r\n        return true;\r\n    }\r\n    //fun-admin-set min gas\r\n    function adminSetMinGas(uint value) onlyOwner public {\r\n        minGas = value; \r\n    }\r\n    //fun-admin-withdraw\r\n    function adminWithdraw(uint value) onlyOwner public returns (bool)  {\r\n        uint256 etherBalance = this.balance;\r\n        if (value <= etherBalance) {\r\n            owner.transfer(value);\r\n            return true;\r\n        } else {\r\n            owner.transfer(etherBalance);\r\n            return true;\r\n        }\r\n        Withdraw(etherBalance);\r\n    }\r\n\r\n    /*******************************************************SOS************************************************************8 */\r\n    function distr(address _to, uint256 _amount)  private returns (bool) {\r\n        require(_to!=0x0);\r\n        require(balanceOf[this] >= _amount);\r\n    \r\n        balanceOf[_to] = balanceOf[_to] + _amount;\r\n        balanceOf[this] = balanceOf[this] - _amount;\r\n        Distr(_to, _amount);\r\n        return true;\r\n    }\r\n    //fun- when get eth value\r\n    function () external payable {\r\n        getTokens();\r\n    }\r\n\r\n    function getTokens() payable public onlyUnderway  onlyNewcomer{\r\n        require(msg.value>0);\r\n    \r\n        uint256 remaining = balanceOf[this];\r\n        uint256 toGive = giftNum;\r\n        if (toGive > remaining) {\r\n            toGive = remaining;\r\n        }\r\n        require(giftNum <= remaining);\r\n        address investor = msg.sender;\r\n        distr(investor, toGive);\r\n        // become a old man\r\n        if (toGive > 0) {\r\n            oldmans[investor] = true;\r\n        }\r\n        //is time to finish\r\n        if (balanceOf[this] <= 1) {\r\n            isFinished = true;\r\n        }\r\n    }\r\n    //has distr to this address?\r\n    function isOldman(address _addre) public view returns (bool) {\r\n        return  oldmans[_addre]; \r\n    } \r\n\r\n}",
  "sourcePath": "E:\\githubPro\\TokenX\\contracts\\Token.sol",
  "compiler": {
    "name": "solc",
    "version": "0.4.18+commit.9cf6e910.Emscripten.clang"
  },
  "schemaVersion": "1.0.1",
  "updatedAt": "2018-03-22T07:47:25.858Z"
}